{
  "_format": "hh-sol-artifact-1",
  "contractName": "DynamicSvgNft",
  "sourceName": "contracts/DynamicSvgNft.sol",
  "abi": [
    {
      "inputs": [
        {
          "internalType": "address",
          "name": "priceFeedAddress",
          "type": "address"
        },
        {
          "internalType": "string",
          "name": "lowSvg",
          "type": "string"
        },
        {
          "internalType": "string",
          "name": "highSvg",
          "type": "string"
        }
      ],
      "stateMutability": "nonpayable",
      "type": "constructor"
    },
    {
      "inputs": [],
      "name": "ERC721Metadata__URI_QueryFor_NonExistentToken",
      "type": "error"
    },
    {
      "anonymous": false,
      "inputs": [
        {
          "indexed": true,
          "internalType": "address",
          "name": "owner",
          "type": "address"
        },
        {
          "indexed": true,
          "internalType": "address",
          "name": "approved",
          "type": "address"
        },
        {
          "indexed": true,
          "internalType": "uint256",
          "name": "tokenId",
          "type": "uint256"
        }
      ],
      "name": "Approval",
      "type": "event"
    },
    {
      "anonymous": false,
      "inputs": [
        {
          "indexed": true,
          "internalType": "address",
          "name": "owner",
          "type": "address"
        },
        {
          "indexed": true,
          "internalType": "address",
          "name": "operator",
          "type": "address"
        },
        {
          "indexed": false,
          "internalType": "bool",
          "name": "approved",
          "type": "bool"
        }
      ],
      "name": "ApprovalForAll",
      "type": "event"
    },
    {
      "anonymous": false,
      "inputs": [
        {
          "indexed": true,
          "internalType": "uint256",
          "name": "tokenId",
          "type": "uint256"
        },
        {
          "indexed": false,
          "internalType": "int256",
          "name": "highValue",
          "type": "int256"
        }
      ],
      "name": "CreatedNFT",
      "type": "event"
    },
    {
      "anonymous": false,
      "inputs": [
        {
          "indexed": true,
          "internalType": "address",
          "name": "previousOwner",
          "type": "address"
        },
        {
          "indexed": true,
          "internalType": "address",
          "name": "newOwner",
          "type": "address"
        }
      ],
      "name": "OwnershipTransferred",
      "type": "event"
    },
    {
      "anonymous": false,
      "inputs": [
        {
          "indexed": true,
          "internalType": "address",
          "name": "from",
          "type": "address"
        },
        {
          "indexed": true,
          "internalType": "address",
          "name": "to",
          "type": "address"
        },
        {
          "indexed": true,
          "internalType": "uint256",
          "name": "tokenId",
          "type": "uint256"
        }
      ],
      "name": "Transfer",
      "type": "event"
    },
    {
      "inputs": [
        {
          "internalType": "address",
          "name": "to",
          "type": "address"
        },
        {
          "internalType": "uint256",
          "name": "tokenId",
          "type": "uint256"
        }
      ],
      "name": "approve",
      "outputs": [],
      "stateMutability": "nonpayable",
      "type": "function"
    },
    {
      "inputs": [
        {
          "internalType": "address",
          "name": "owner",
          "type": "address"
        }
      ],
      "name": "balanceOf",
      "outputs": [
        {
          "internalType": "uint256",
          "name": "",
          "type": "uint256"
        }
      ],
      "stateMutability": "view",
      "type": "function"
    },
    {
      "inputs": [
        {
          "internalType": "uint256",
          "name": "tokenId",
          "type": "uint256"
        }
      ],
      "name": "getApproved",
      "outputs": [
        {
          "internalType": "address",
          "name": "",
          "type": "address"
        }
      ],
      "stateMutability": "view",
      "type": "function"
    },
    {
      "inputs": [],
      "name": "getHighSVG",
      "outputs": [
        {
          "internalType": "string",
          "name": "",
          "type": "string"
        }
      ],
      "stateMutability": "view",
      "type": "function"
    },
    {
      "inputs": [],
      "name": "getLowSVG",
      "outputs": [
        {
          "internalType": "string",
          "name": "",
          "type": "string"
        }
      ],
      "stateMutability": "view",
      "type": "function"
    },
    {
      "inputs": [],
      "name": "getPriceFeed",
      "outputs": [
        {
          "internalType": "contract AggregatorV3Interface",
          "name": "",
          "type": "address"
        }
      ],
      "stateMutability": "view",
      "type": "function"
    },
    {
      "inputs": [],
      "name": "getTokenCounter",
      "outputs": [
        {
          "internalType": "uint256",
          "name": "",
          "type": "uint256"
        }
      ],
      "stateMutability": "view",
      "type": "function"
    },
    {
      "inputs": [
        {
          "internalType": "address",
          "name": "owner",
          "type": "address"
        },
        {
          "internalType": "address",
          "name": "operator",
          "type": "address"
        }
      ],
      "name": "isApprovedForAll",
      "outputs": [
        {
          "internalType": "bool",
          "name": "",
          "type": "bool"
        }
      ],
      "stateMutability": "view",
      "type": "function"
    },
    {
      "inputs": [
        {
          "internalType": "int256",
          "name": "highValue",
          "type": "int256"
        }
      ],
      "name": "mintNft",
      "outputs": [],
      "stateMutability": "nonpayable",
      "type": "function"
    },
    {
      "inputs": [],
      "name": "name",
      "outputs": [
        {
          "internalType": "string",
          "name": "",
          "type": "string"
        }
      ],
      "stateMutability": "view",
      "type": "function"
    },
    {
      "inputs": [],
      "name": "owner",
      "outputs": [
        {
          "internalType": "address",
          "name": "",
          "type": "address"
        }
      ],
      "stateMutability": "view",
      "type": "function"
    },
    {
      "inputs": [
        {
          "internalType": "uint256",
          "name": "tokenId",
          "type": "uint256"
        }
      ],
      "name": "ownerOf",
      "outputs": [
        {
          "internalType": "address",
          "name": "",
          "type": "address"
        }
      ],
      "stateMutability": "view",
      "type": "function"
    },
    {
      "inputs": [],
      "name": "renounceOwnership",
      "outputs": [],
      "stateMutability": "nonpayable",
      "type": "function"
    },
    {
      "inputs": [
        {
          "internalType": "address",
          "name": "from",
          "type": "address"
        },
        {
          "internalType": "address",
          "name": "to",
          "type": "address"
        },
        {
          "internalType": "uint256",
          "name": "tokenId",
          "type": "uint256"
        }
      ],
      "name": "safeTransferFrom",
      "outputs": [],
      "stateMutability": "nonpayable",
      "type": "function"
    },
    {
      "inputs": [
        {
          "internalType": "address",
          "name": "from",
          "type": "address"
        },
        {
          "internalType": "address",
          "name": "to",
          "type": "address"
        },
        {
          "internalType": "uint256",
          "name": "tokenId",
          "type": "uint256"
        },
        {
          "internalType": "bytes",
          "name": "data",
          "type": "bytes"
        }
      ],
      "name": "safeTransferFrom",
      "outputs": [],
      "stateMutability": "nonpayable",
      "type": "function"
    },
    {
      "inputs": [
        {
          "internalType": "address",
          "name": "operator",
          "type": "address"
        },
        {
          "internalType": "bool",
          "name": "approved",
          "type": "bool"
        }
      ],
      "name": "setApprovalForAll",
      "outputs": [],
      "stateMutability": "nonpayable",
      "type": "function"
    },
    {
      "inputs": [
        {
          "internalType": "bytes4",
          "name": "interfaceId",
          "type": "bytes4"
        }
      ],
      "name": "supportsInterface",
      "outputs": [
        {
          "internalType": "bool",
          "name": "",
          "type": "bool"
        }
      ],
      "stateMutability": "view",
      "type": "function"
    },
    {
      "inputs": [
        {
          "internalType": "string",
          "name": "svg",
          "type": "string"
        }
      ],
      "name": "svgToImageURI",
      "outputs": [
        {
          "internalType": "string",
          "name": "",
          "type": "string"
        }
      ],
      "stateMutability": "pure",
      "type": "function"
    },
    {
      "inputs": [],
      "name": "symbol",
      "outputs": [
        {
          "internalType": "string",
          "name": "",
          "type": "string"
        }
      ],
      "stateMutability": "view",
      "type": "function"
    },
    {
      "inputs": [
        {
          "internalType": "uint256",
          "name": "tokenId",
          "type": "uint256"
        }
      ],
      "name": "tokenURI",
      "outputs": [
        {
          "internalType": "string",
          "name": "",
          "type": "string"
        }
      ],
      "stateMutability": "view",
      "type": "function"
    },
    {
      "inputs": [
        {
          "internalType": "address",
          "name": "from",
          "type": "address"
        },
        {
          "internalType": "address",
          "name": "to",
          "type": "address"
        },
        {
          "internalType": "uint256",
          "name": "tokenId",
          "type": "uint256"
        }
      ],
      "name": "transferFrom",
      "outputs": [],
      "stateMutability": "nonpayable",
      "type": "function"
    },
    {
      "inputs": [
        {
          "internalType": "address",
          "name": "newOwner",
          "type": "address"
        }
      ],
      "name": "transferOwnership",
      "outputs": [],
      "stateMutability": "nonpayable",
      "type": "function"
    }
  ],
  "bytecode": "0x60a06040523480156200001157600080fd5b5060405162003ebb38038062003ebb833981810160405281019062000037919062000669565b6040518060400160405280600f81526020017f44796e616d696320535647204e465400000000000000000000000000000000008152506040518060400160405280600381526020017f44534e00000000000000000000000000000000000000000000000000000000008152508160009081620000b491906200094e565b508060019081620000c691906200094e565b505050620000e9620000dd6200017260201b60201c565b6200017a60201b60201c565b60006007819055508273ffffffffffffffffffffffffffffffffffffffff1660808173ffffffffffffffffffffffffffffffffffffffff168152505062000136826200024060201b60201c565b600890816200014691906200094e565b5062000158816200024060201b60201c565b600990816200016891906200094e565b5050505062000bd4565b600033905090565b6000600660009054906101000a900473ffffffffffffffffffffffffffffffffffffffff16905081600660006101000a81548173ffffffffffffffffffffffffffffffffffffffff021916908373ffffffffffffffffffffffffffffffffffffffff1602179055508173ffffffffffffffffffffffffffffffffffffffff168173ffffffffffffffffffffffffffffffffffffffff167f8be0079c531659141344cd1fd0a4f28419497f9722a3daafe3b4186f6b6457e060405160405180910390a35050565b606060006040518060400160405280601a81526020017f646174613a696d6167652f7376672b786d6c3b6261736536342c00000000000081525090506000620002b58460405160200162000295919062000a77565b604051602081830303815290604052620002e460201b620010211760201c565b90508181604051602001620002cc92919062000a90565b60405160208183030381529060405292505050919050565b6060600082510362000308576040518060200160405280600081525090506200046c565b600060405180606001604052806040815260200162003e7b60409139905060006003600285516200033a919062000ae7565b62000346919062000b51565b600462000354919062000b89565b9050600060208262000367919062000ae7565b67ffffffffffffffff81111562000383576200038262000505565b5b6040519080825280601f01601f191660200182016040528015620003b65781602001600182028036833780820191505090505b509050818152600183018586518101602084015b8183101562000427576003830192508251603f8160121c168501518253600182019150603f81600c1c168501518253600182019150603f8160061c168501518253600182019150603f8116850151825360018201915050620003ca565b600389510660018114620004445760028114620004555762000460565b613d3d60f01b600283035262000460565b603d60f81b60018303525b50505050508093505050505b919050565b6000604051905090565b600080fd5b600080fd5b600073ffffffffffffffffffffffffffffffffffffffff82169050919050565b6000620004b28262000485565b9050919050565b620004c481620004a5565b8114620004d057600080fd5b50565b600081519050620004e481620004b9565b92915050565b600080fd5b600080fd5b6000601f19601f8301169050919050565b7f4e487b7100000000000000000000000000000000000000000000000000000000600052604160045260246000fd5b6200053f82620004f4565b810181811067ffffffffffffffff8211171562000561576200056062000505565b5b80604052505050565b60006200057662000471565b905062000584828262000534565b919050565b600067ffffffffffffffff821115620005a757620005a662000505565b5b620005b282620004f4565b9050602081019050919050565b60005b83811015620005df578082015181840152602081019050620005c2565b60008484015250505050565b600062000602620005fc8462000589565b6200056a565b905082815260208101848484011115620006215762000620620004ef565b5b6200062e848285620005bf565b509392505050565b600082601f8301126200064e576200064d620004ea565b5b815162000660848260208601620005eb565b91505092915050565b6000806000606084860312156200068557620006846200047b565b5b60006200069586828701620004d3565b935050602084015167ffffffffffffffff811115620006b957620006b862000480565b5b620006c78682870162000636565b925050604084015167ffffffffffffffff811115620006eb57620006ea62000480565b5b620006f98682870162000636565b9150509250925092565b600081519050919050565b7f4e487b7100000000000000000000000000000000000000000000000000000000600052602260045260246000fd5b600060028204905060018216806200075657607f821691505b6020821081036200076c576200076b6200070e565b5b50919050565b60008190508160005260206000209050919050565b60006020601f8301049050919050565b600082821b905092915050565b600060088302620007d67fffffffffffffffffffffffffffffffffffffffffffffffffffffffffffffffff8262000797565b620007e2868362000797565b95508019841693508086168417925050509392505050565b6000819050919050565b6000819050919050565b60006200082f620008296200082384620007fa565b62000804565b620007fa565b9050919050565b6000819050919050565b6200084b836200080e565b620008636200085a8262000836565b848454620007a4565b825550505050565b600090565b6200087a6200086b565b6200088781848462000840565b505050565b5b81811015620008af57620008a360008262000870565b6001810190506200088d565b5050565b601f821115620008fe57620008c88162000772565b620008d38462000787565b81016020851015620008e3578190505b620008fb620008f28562000787565b8301826200088c565b50505b505050565b600082821c905092915050565b6000620009236000198460080262000903565b1980831691505092915050565b60006200093e838362000910565b9150826002028217905092915050565b620009598262000703565b67ffffffffffffffff81111562000975576200097462000505565b5b6200098182546200073d565b6200098e828285620008b3565b600060209050601f831160018114620009c65760008415620009b1578287015190505b620009bd858262000930565b86555062000a2d565b601f198416620009d68662000772565b60005b8281101562000a0057848901518255600182019150602085019450602081019050620009d9565b8683101562000a20578489015162000a1c601f89168262000910565b8355505b6001600288020188555050505b505050505050565b600081905092915050565b600062000a4d8262000703565b62000a59818562000a35565b935062000a6b818560208601620005bf565b80840191505092915050565b600062000a85828462000a40565b915081905092915050565b600062000a9e828562000a40565b915062000aac828462000a40565b91508190509392505050565b7f4e487b7100000000000000000000000000000000000000000000000000000000600052601160045260246000fd5b600062000af482620007fa565b915062000b0183620007fa565b925082820190508082111562000b1c5762000b1b62000ab8565b5b92915050565b7f4e487b7100000000000000000000000000000000000000000000000000000000600052601260045260246000fd5b600062000b5e82620007fa565b915062000b6b83620007fa565b92508262000b7e5762000b7d62000b22565b5b828204905092915050565b600062000b9682620007fa565b915062000ba383620007fa565b925082820262000bb381620007fa565b9150828204841483151762000bcd5762000bcc62000ab8565b5b5092915050565b60805161328462000bf760003960008181610b6b0152610c4c01526132846000f3fe608060405234801561001057600080fd5b50600436106101425760003560e01c8063715018a6116100b8578063a22cb4651161007c578063a22cb46514610365578063b88d4fde14610381578063c87b56dd1461039d578063e985e9c5146103cd578063ed28a122146103fd578063f2fde38b1461041b57610142565b8063715018a6146102e357806376f6056b146102ed5780638da5cb5b1461030b57806395d89b41146103295780639e87a5cd1461034757610142565b806323b872dd1161010a57806323b872dd146101fd57806330d871c61461021957806342842e0e146102495780636352211e146102655780636e02007d1461029557806370a08231146102b357610142565b806301ffc9a71461014757806306fdde0314610177578063081812fc14610195578063095ea7b3146101c55780631e930812146101e1575b600080fd5b610161600480360381019061015c9190611e31565b610437565b60405161016e9190611e79565b60405180910390f35b61017f610519565b60405161018c9190611f24565b60405180910390f35b6101af60048036038101906101aa9190611f7c565b6105ab565b6040516101bc9190611fea565b60405180910390f35b6101df60048036038101906101da9190612031565b6105f1565b005b6101fb60048036038101906101f691906120a7565b610708565b005b610217600480360381019061021291906120d4565b610780565b005b610233600480360381019061022e919061225c565b6107e0565b6040516102409190611f24565b60405180910390f35b610263600480360381019061025e91906120d4565b610873565b005b61027f600480360381019061027a9190611f7c565b610893565b60405161028c9190611fea565b60405180910390f35b61029d610944565b6040516102aa91906122b4565b60405180910390f35b6102cd60048036038101906102c891906122cf565b61094e565b6040516102da91906122b4565b60405180910390f35b6102eb610a05565b005b6102f5610a19565b6040516103029190611f24565b60405180910390f35b610313610aab565b6040516103209190611fea565b60405180910390f35b610331610ad5565b60405161033e9190611f24565b60405180910390f35b61034f610b67565b60405161035c919061235b565b60405180910390f35b61037f600480360381019061037a91906123a2565b610b8f565b005b61039b60048036038101906103969190612483565b610ba5565b005b6103b760048036038101906103b29190611f7c565b610c07565b6040516103c49190611f24565b60405180910390f35b6103e760048036038101906103e29190612506565b610e78565b6040516103f49190611e79565b60405180910390f35b610405610f0c565b6040516104129190611f24565b60405180910390f35b610435600480360381019061043091906122cf565b610f9e565b005b60007f80ac58cd000000000000000000000000000000000000000000000000000000007bffffffffffffffffffffffffffffffffffffffffffffffffffffffff1916827bffffffffffffffffffffffffffffffffffffffffffffffffffffffff1916148061050257507f5b5e139f000000000000000000000000000000000000000000000000000000007bffffffffffffffffffffffffffffffffffffffffffffffffffffffff1916827bffffffffffffffffffffffffffffffffffffffffffffffffffffffff1916145b80610512575061051182611199565b5b9050919050565b60606000805461052890612575565b80601f016020809104026020016040519081016040528092919081815260200182805461055490612575565b80156105a15780601f10610576576101008083540402835291602001916105a1565b820191906000526020600020905b81548152906001019060200180831161058457829003601f168201915b5050505050905090565b60006105b682611203565b6004600083815260200190815260200160002060009054906101000a900473ffffffffffffffffffffffffffffffffffffffff169050919050565b60006105fc82610893565b90508073ffffffffffffffffffffffffffffffffffffffff168373ffffffffffffffffffffffffffffffffffffffff160361066c576040517f08c379a000000000000000000000000000000000000000000000000000000000815260040161066390612618565b60405180910390fd5b8073ffffffffffffffffffffffffffffffffffffffff1661068b61124e565b73ffffffffffffffffffffffffffffffffffffffff1614806106ba57506106b9816106b461124e565b610e78565b5b6106f9576040517f08c379a00000000000000000000000000000000000000000000000000000000081526004016106f0906126aa565b60405180910390fd5b6107038383611256565b505050565b80600a600060075481526020019081526020016000208190555061072e3360075461130f565b600160075461073d91906126f9565b6007819055506007547f882d3b5a729a8bb95cf6c0083c99b42ecd9637123d4425bd7b768877fd8af8b082604051610775919061273c565b60405180910390a250565b61079161078b61124e565b8261132d565b6107d0576040517f08c379a00000000000000000000000000000000000000000000000000000000081526004016107c7906127c9565b60405180910390fd5b6107db8383836113c2565b505050565b606060006040518060400160405280601a81526020017f646174613a696d6167652f7376672b786d6c3b6261736536342c00000000000081525090506000610846846040516020016108329190612825565b604051602081830303815290604052611021565b9050818160405160200161085b92919061283c565b60405160208183030381529060405292505050919050565b61088e83838360405180602001604052806000815250610ba5565b505050565b6000806002600084815260200190815260200160002060009054906101000a900473ffffffffffffffffffffffffffffffffffffffff169050600073ffffffffffffffffffffffffffffffffffffffff168173ffffffffffffffffffffffffffffffffffffffff160361093b576040517f08c379a0000000000000000000000000000000000000000000000000000000008152600401610932906128ac565b60405180910390fd5b80915050919050565b6000600754905090565b60008073ffffffffffffffffffffffffffffffffffffffff168273ffffffffffffffffffffffffffffffffffffffff16036109be576040517f08c379a00000000000000000000000000000000000000000000000000000000081526004016109b59061293e565b60405180910390fd5b600360008373ffffffffffffffffffffffffffffffffffffffff1673ffffffffffffffffffffffffffffffffffffffff168152602001908152602001600020549050919050565b610a0d611628565b610a1760006116a6565b565b606060098054610a2890612575565b80601f0160208091040260200160405190810160405280929190818152602001828054610a5490612575565b8015610aa15780601f10610a7657610100808354040283529160200191610aa1565b820191906000526020600020905b815481529060010190602001808311610a8457829003601f168201915b5050505050905090565b6000600660009054906101000a900473ffffffffffffffffffffffffffffffffffffffff16905090565b606060018054610ae490612575565b80601f0160208091040260200160405190810160405280929190818152602001828054610b1090612575565b8015610b5d5780601f10610b3257610100808354040283529160200191610b5d565b820191906000526020600020905b815481529060010190602001808311610b4057829003601f168201915b5050505050905090565b60007f0000000000000000000000000000000000000000000000000000000000000000905090565b610ba1610b9a61124e565b838361176c565b5050565b610bb6610bb061124e565b8361132d565b610bf5576040517f08c379a0000000000000000000000000000000000000000000000000000000008152600401610bec906127c9565b60405180910390fd5b610c01848484846118d8565b50505050565b6060610c1282611934565b610c48576040517f6df5edae00000000000000000000000000000000000000000000000000000000815260040160405180910390fd5b60007f000000000000000000000000000000000000000000000000000000000000000073ffffffffffffffffffffffffffffffffffffffff1663feaf968c6040518163ffffffff1660e01b815260040160a060405180830381865afa158015610cb5573d6000803e3d6000fd5b505050506040513d601f19601f82011682018060405250810190610cd991906129ca565b505050915050600060088054610cee90612575565b80601f0160208091040260200160405190810160405280929190818152602001828054610d1a90612575565b8015610d675780601f10610d3c57610100808354040283529160200191610d67565b820191906000526020600020905b815481529060010190602001808311610d4a57829003601f168201915b50505050509050600a6000858152602001908152602001600020548212610e165760098054610d9590612575565b80601f0160208091040260200160405190810160405280929190818152602001828054610dc190612575565b8015610e0e5780601f10610de357610100808354040283529160200191610e0e565b820191906000526020600020905b815481529060010190602001808311610df157829003601f168201915b505050505090505b610e1e6119a0565b610e4f610e29610519565b83604051602001610e3b929190612c0d565b604051602081830303815290604052611021565b604051602001610e6092919061283c565b60405160208183030381529060405292505050919050565b6000600560008473ffffffffffffffffffffffffffffffffffffffff1673ffffffffffffffffffffffffffffffffffffffff16815260200190815260200160002060008373ffffffffffffffffffffffffffffffffffffffff1673ffffffffffffffffffffffffffffffffffffffff16815260200190815260200160002060009054906101000a900460ff16905092915050565b606060088054610f1b90612575565b80601f0160208091040260200160405190810160405280929190818152602001828054610f4790612575565b8015610f945780601f10610f6957610100808354040283529160200191610f94565b820191906000526020600020905b815481529060010190602001808311610f7757829003601f168201915b5050505050905090565b610fa6611628565b600073ffffffffffffffffffffffffffffffffffffffff168173ffffffffffffffffffffffffffffffffffffffff1603611015576040517f08c379a000000000000000000000000000000000000000000000000000000000815260040161100c90612ccf565b60405180910390fd5b61101e816116a6565b50565b6060600082510361104357604051806020016040528060008152509050611194565b600060405180606001604052806040815260200161320f604091399050600060036002855161107291906126f9565b61107c9190612d1e565b60046110889190612d4f565b9050600060208261109991906126f9565b67ffffffffffffffff8111156110b2576110b1612131565b5b6040519080825280601f01601f1916602001820160405280156110e45781602001600182028036833780820191505090505b509050818152600183018586518101602084015b81831015611153576003830192508251603f8160121c168501518253600182019150603f81600c1c168501518253600182019150603f8160061c168501518253600182019150603f81168501518253600182019150506110f8565b60038951066001811461116d576002811461117d57611188565b613d3d60f01b6002830352611188565b603d60f81b60018303525b50505050508093505050505b919050565b60007f01ffc9a7000000000000000000000000000000000000000000000000000000007bffffffffffffffffffffffffffffffffffffffffffffffffffffffff1916827bffffffffffffffffffffffffffffffffffffffffffffffffffffffff1916149050919050565b61120c81611934565b61124b576040517f08c379a0000000000000000000000000000000000000000000000000000000008152600401611242906128ac565b60405180910390fd5b50565b600033905090565b816004600083815260200190815260200160002060006101000a81548173ffffffffffffffffffffffffffffffffffffffff021916908373ffffffffffffffffffffffffffffffffffffffff160217905550808273ffffffffffffffffffffffffffffffffffffffff166112c983610893565b73ffffffffffffffffffffffffffffffffffffffff167f8c5be1e5ebec7d5bd14f71427d1e84f3dd0314c0f7b2291e5b200ac8c7c3b92560405160405180910390a45050565b6113298282604051806020016040528060008152506119dd565b5050565b60008061133983610893565b90508073ffffffffffffffffffffffffffffffffffffffff168473ffffffffffffffffffffffffffffffffffffffff16148061137b575061137a8185610e78565b5b806113b957508373ffffffffffffffffffffffffffffffffffffffff166113a1846105ab565b73ffffffffffffffffffffffffffffffffffffffff16145b91505092915050565b8273ffffffffffffffffffffffffffffffffffffffff166113e282610893565b73ffffffffffffffffffffffffffffffffffffffff1614611438576040517f08c379a000000000000000000000000000000000000000000000000000000000815260040161142f90612e03565b60405180910390fd5b600073ffffffffffffffffffffffffffffffffffffffff168273ffffffffffffffffffffffffffffffffffffffff16036114a7576040517f08c379a000000000000000000000000000000000000000000000000000000000815260040161149e90612e95565b60405180910390fd5b6114b2838383611a38565b6114bd600082611256565b6001600360008573ffffffffffffffffffffffffffffffffffffffff1673ffffffffffffffffffffffffffffffffffffffff168152602001908152602001600020600082825461150d9190612eb5565b925050819055506001600360008473ffffffffffffffffffffffffffffffffffffffff1673ffffffffffffffffffffffffffffffffffffffff168152602001908152602001600020600082825461156491906126f9565b92505081905550816002600083815260200190815260200160002060006101000a81548173ffffffffffffffffffffffffffffffffffffffff021916908373ffffffffffffffffffffffffffffffffffffffff160217905550808273ffffffffffffffffffffffffffffffffffffffff168473ffffffffffffffffffffffffffffffffffffffff167fddf252ad1be2c89b69c2b068fc378daa952ba7f163c4a11628f55a4df523b3ef60405160405180910390a4611623838383611a3d565b505050565b61163061124e565b73ffffffffffffffffffffffffffffffffffffffff1661164e610aab565b73ffffffffffffffffffffffffffffffffffffffff16146116a4576040517f08c379a000000000000000000000000000000000000000000000000000000000815260040161169b90612f35565b60405180910390fd5b565b6000600660009054906101000a900473ffffffffffffffffffffffffffffffffffffffff16905081600660006101000a81548173ffffffffffffffffffffffffffffffffffffffff021916908373ffffffffffffffffffffffffffffffffffffffff1602179055508173ffffffffffffffffffffffffffffffffffffffff168173ffffffffffffffffffffffffffffffffffffffff167f8be0079c531659141344cd1fd0a4f28419497f9722a3daafe3b4186f6b6457e060405160405180910390a35050565b8173ffffffffffffffffffffffffffffffffffffffff168373ffffffffffffffffffffffffffffffffffffffff16036117da576040517f08c379a00000000000000000000000000000000000000000000000000000000081526004016117d190612fa1565b60405180910390fd5b80600560008573ffffffffffffffffffffffffffffffffffffffff1673ffffffffffffffffffffffffffffffffffffffff16815260200190815260200160002060008473ffffffffffffffffffffffffffffffffffffffff1673ffffffffffffffffffffffffffffffffffffffff16815260200190815260200160002060006101000a81548160ff0219169083151502179055508173ffffffffffffffffffffffffffffffffffffffff168373ffffffffffffffffffffffffffffffffffffffff167f17307eab39ab6107e8899845ad3d59bd9653f200f220920489ca2b5937696c31836040516118cb9190611e79565b60405180910390a3505050565b6118e38484846113c2565b6118ef84848484611a42565b61192e576040517f08c379a000000000000000000000000000000000000000000000000000000000815260040161192590613033565b60405180910390fd5b50505050565b60008073ffffffffffffffffffffffffffffffffffffffff166002600084815260200190815260200160002060009054906101000a900473ffffffffffffffffffffffffffffffffffffffff1673ffffffffffffffffffffffffffffffffffffffff1614159050919050565b60606040518060400160405280601d81526020017f646174613a6170706c69636174696f6e2f6a736f6e3b6261736536342c000000815250905090565b6119e78383611bc9565b6119f46000848484611a42565b611a33576040517f08c379a0000000000000000000000000000000000000000000000000000000008152600401611a2a90613033565b60405180910390fd5b505050565b505050565b505050565b6000611a638473ffffffffffffffffffffffffffffffffffffffff16611da2565b15611bbc578373ffffffffffffffffffffffffffffffffffffffff1663150b7a02611a8c61124e565b8786866040518563ffffffff1660e01b8152600401611aae94939291906130a8565b6020604051808303816000875af1925050508015611aea57506040513d601f19601f82011682018060405250810190611ae79190613109565b60015b611b6c573d8060008114611b1a576040519150601f19603f3d011682016040523d82523d6000602084013e611b1f565b606091505b506000815103611b64576040517f08c379a0000000000000000000000000000000000000000000000000000000008152600401611b5b90613033565b60405180910390fd5b805181602001fd5b63150b7a0260e01b7bffffffffffffffffffffffffffffffffffffffffffffffffffffffff1916817bffffffffffffffffffffffffffffffffffffffffffffffffffffffff191614915050611bc1565b600190505b949350505050565b600073ffffffffffffffffffffffffffffffffffffffff168273ffffffffffffffffffffffffffffffffffffffff1603611c38576040517f08c379a0000000000000000000000000000000000000000000000000000000008152600401611c2f90613182565b60405180910390fd5b611c4181611934565b15611c81576040517f08c379a0000000000000000000000000000000000000000000000000000000008152600401611c78906131ee565b60405180910390fd5b611c8d60008383611a38565b6001600360008473ffffffffffffffffffffffffffffffffffffffff1673ffffffffffffffffffffffffffffffffffffffff1681526020019081526020016000206000828254611cdd91906126f9565b92505081905550816002600083815260200190815260200160002060006101000a81548173ffffffffffffffffffffffffffffffffffffffff021916908373ffffffffffffffffffffffffffffffffffffffff160217905550808273ffffffffffffffffffffffffffffffffffffffff16600073ffffffffffffffffffffffffffffffffffffffff167fddf252ad1be2c89b69c2b068fc378daa952ba7f163c4a11628f55a4df523b3ef60405160405180910390a4611d9e60008383611a3d565b5050565b6000808273ffffffffffffffffffffffffffffffffffffffff163b119050919050565b6000604051905090565b600080fd5b600080fd5b60007fffffffff0000000000000000000000000000000000000000000000000000000082169050919050565b611e0e81611dd9565b8114611e1957600080fd5b50565b600081359050611e2b81611e05565b92915050565b600060208284031215611e4757611e46611dcf565b5b6000611e5584828501611e1c565b91505092915050565b60008115159050919050565b611e7381611e5e565b82525050565b6000602082019050611e8e6000830184611e6a565b92915050565b600081519050919050565b600082825260208201905092915050565b60005b83811015611ece578082015181840152602081019050611eb3565b60008484015250505050565b6000601f19601f8301169050919050565b6000611ef682611e94565b611f008185611e9f565b9350611f10818560208601611eb0565b611f1981611eda565b840191505092915050565b60006020820190508181036000830152611f3e8184611eeb565b905092915050565b6000819050919050565b611f5981611f46565b8114611f6457600080fd5b50565b600081359050611f7681611f50565b92915050565b600060208284031215611f9257611f91611dcf565b5b6000611fa084828501611f67565b91505092915050565b600073ffffffffffffffffffffffffffffffffffffffff82169050919050565b6000611fd482611fa9565b9050919050565b611fe481611fc9565b82525050565b6000602082019050611fff6000830184611fdb565b92915050565b61200e81611fc9565b811461201957600080fd5b50565b60008135905061202b81612005565b92915050565b6000806040838503121561204857612047611dcf565b5b60006120568582860161201c565b925050602061206785828601611f67565b9150509250929050565b6000819050919050565b61208481612071565b811461208f57600080fd5b50565b6000813590506120a18161207b565b92915050565b6000602082840312156120bd576120bc611dcf565b5b60006120cb84828501612092565b91505092915050565b6000806000606084860312156120ed576120ec611dcf565b5b60006120fb8682870161201c565b935050602061210c8682870161201c565b925050604061211d86828701611f67565b9150509250925092565b600080fd5b600080fd5b7f4e487b7100000000000000000000000000000000000000000000000000000000600052604160045260246000fd5b61216982611eda565b810181811067ffffffffffffffff8211171561218857612187612131565b5b80604052505050565b600061219b611dc5565b90506121a78282612160565b919050565b600067ffffffffffffffff8211156121c7576121c6612131565b5b6121d082611eda565b9050602081019050919050565b82818337600083830152505050565b60006121ff6121fa846121ac565b612191565b90508281526020810184848401111561221b5761221a61212c565b5b6122268482856121dd565b509392505050565b600082601f83011261224357612242612127565b5b81356122538482602086016121ec565b91505092915050565b60006020828403121561227257612271611dcf565b5b600082013567ffffffffffffffff8111156122905761228f611dd4565b5b61229c8482850161222e565b91505092915050565b6122ae81611f46565b82525050565b60006020820190506122c960008301846122a5565b92915050565b6000602082840312156122e5576122e4611dcf565b5b60006122f38482850161201c565b91505092915050565b6000819050919050565b600061232161231c61231784611fa9565b6122fc565b611fa9565b9050919050565b600061233382612306565b9050919050565b600061234582612328565b9050919050565b6123558161233a565b82525050565b6000602082019050612370600083018461234c565b92915050565b61237f81611e5e565b811461238a57600080fd5b50565b60008135905061239c81612376565b92915050565b600080604083850312156123b9576123b8611dcf565b5b60006123c78582860161201c565b92505060206123d88582860161238d565b9150509250929050565b600067ffffffffffffffff8211156123fd576123fc612131565b5b61240682611eda565b9050602081019050919050565b6000612426612421846123e2565b612191565b9050828152602081018484840111156124425761244161212c565b5b61244d8482856121dd565b509392505050565b600082601f83011261246a57612469612127565b5b813561247a848260208601612413565b91505092915050565b6000806000806080858703121561249d5761249c611dcf565b5b60006124ab8782880161201c565b94505060206124bc8782880161201c565b93505060406124cd87828801611f67565b925050606085013567ffffffffffffffff8111156124ee576124ed611dd4565b5b6124fa87828801612455565b91505092959194509250565b6000806040838503121561251d5761251c611dcf565b5b600061252b8582860161201c565b925050602061253c8582860161201c565b9150509250929050565b7f4e487b7100000000000000000000000000000000000000000000000000000000600052602260045260246000fd5b6000600282049050600182168061258d57607f821691505b6020821081036125a05761259f612546565b5b50919050565b7f4552433732313a20617070726f76616c20746f2063757272656e74206f776e6560008201527f7200000000000000000000000000000000000000000000000000000000000000602082015250565b6000612602602183611e9f565b915061260d826125a6565b604082019050919050565b60006020820190508181036000830152612631816125f5565b9050919050565b7f4552433732313a20617070726f76652063616c6c6572206973206e6f7420746f60008201527f6b656e206f776e6572206e6f7220617070726f76656420666f7220616c6c0000602082015250565b6000612694603e83611e9f565b915061269f82612638565b604082019050919050565b600060208201905081810360008301526126c381612687565b9050919050565b7f4e487b7100000000000000000000000000000000000000000000000000000000600052601160045260246000fd5b600061270482611f46565b915061270f83611f46565b9250828201905080821115612727576127266126ca565b5b92915050565b61273681612071565b82525050565b6000602082019050612751600083018461272d565b92915050565b7f4552433732313a2063616c6c6572206973206e6f7420746f6b656e206f776e6560008201527f72206e6f7220617070726f766564000000000000000000000000000000000000602082015250565b60006127b3602e83611e9f565b91506127be82612757565b604082019050919050565b600060208201905081810360008301526127e2816127a6565b9050919050565b600081905092915050565b60006127ff82611e94565b61280981856127e9565b9350612819818560208601611eb0565b80840191505092915050565b600061283182846127f4565b915081905092915050565b600061284882856127f4565b915061285482846127f4565b91508190509392505050565b7f4552433732313a20696e76616c696420746f6b656e2049440000000000000000600082015250565b6000612896601883611e9f565b91506128a182612860565b602082019050919050565b600060208201905081810360008301526128c581612889565b9050919050565b7f4552433732313a2061646472657373207a65726f206973206e6f74206120766160008201527f6c6964206f776e65720000000000000000000000000000000000000000000000602082015250565b6000612928602983611e9f565b9150612933826128cc565b604082019050919050565b600060208201905081810360008301526129578161291b565b9050919050565b600069ffffffffffffffffffff82169050919050565b61297d8161295e565b811461298857600080fd5b50565b60008151905061299a81612974565b92915050565b6000815190506129af8161207b565b92915050565b6000815190506129c481611f50565b92915050565b600080600080600060a086880312156129e6576129e5611dcf565b5b60006129f48882890161298b565b9550506020612a05888289016129a0565b9450506040612a16888289016129b5565b9350506060612a27888289016129b5565b9250506080612a388882890161298b565b9150509295509295909350565b7f7b226e616d65223a220000000000000000000000000000000000000000000000600082015250565b6000612a7b6009836127e9565b9150612a8682612a45565b600982019050919050565b7f222c20226465736372697074696f6e223a22416e204e4654207468617420636860008201527f616e676573206261736564206f6e2074686520436861696e6c696e6b2046656560208201527f64222c2000000000000000000000000000000000000000000000000000000000604082015250565b6000612b136044836127e9565b9150612b1e82612a91565b604482019050919050565b7f2261747472696275746573223a205b7b2274726169745f74797065223a20226360008201527f6f6f6c6e657373222c202276616c7565223a203130307d5d2c2022696d61676560208201527f223a220000000000000000000000000000000000000000000000000000000000604082015250565b6000612bab6043836127e9565b9150612bb682612b29565b604382019050919050565b7f227d000000000000000000000000000000000000000000000000000000000000600082015250565b6000612bf76002836127e9565b9150612c0282612bc1565b600282019050919050565b6000612c1882612a6e565b9150612c2482856127f4565b9150612c2f82612b06565b9150612c3a82612b9e565b9150612c4682846127f4565b9150612c5182612bea565b91508190509392505050565b7f4f776e61626c653a206e6577206f776e657220697320746865207a65726f206160008201527f6464726573730000000000000000000000000000000000000000000000000000602082015250565b6000612cb9602683611e9f565b9150612cc482612c5d565b604082019050919050565b60006020820190508181036000830152612ce881612cac565b9050919050565b7f4e487b7100000000000000000000000000000000000000000000000000000000600052601260045260246000fd5b6000612d2982611f46565b9150612d3483611f46565b925082612d4457612d43612cef565b5b828204905092915050565b6000612d5a82611f46565b9150612d6583611f46565b9250828202612d7381611f46565b91508282048414831517612d8a57612d896126ca565b5b5092915050565b7f4552433732313a207472616e736665722066726f6d20696e636f72726563742060008201527f6f776e6572000000000000000000000000000000000000000000000000000000602082015250565b6000612ded602583611e9f565b9150612df882612d91565b604082019050919050565b60006020820190508181036000830152612e1c81612de0565b9050919050565b7f4552433732313a207472616e7366657220746f20746865207a65726f2061646460008201527f7265737300000000000000000000000000000000000000000000000000000000602082015250565b6000612e7f602483611e9f565b9150612e8a82612e23565b604082019050919050565b60006020820190508181036000830152612eae81612e72565b9050919050565b6000612ec082611f46565b9150612ecb83611f46565b9250828203905081811115612ee357612ee26126ca565b5b92915050565b7f4f776e61626c653a2063616c6c6572206973206e6f7420746865206f776e6572600082015250565b6000612f1f602083611e9f565b9150612f2a82612ee9565b602082019050919050565b60006020820190508181036000830152612f4e81612f12565b9050919050565b7f4552433732313a20617070726f766520746f2063616c6c657200000000000000600082015250565b6000612f8b601983611e9f565b9150612f9682612f55565b602082019050919050565b60006020820190508181036000830152612fba81612f7e565b9050919050565b7f4552433732313a207472616e7366657220746f206e6f6e20455243373231526560008201527f63656976657220696d706c656d656e7465720000000000000000000000000000602082015250565b600061301d603283611e9f565b915061302882612fc1565b604082019050919050565b6000602082019050818103600083015261304c81613010565b9050919050565b600081519050919050565b600082825260208201905092915050565b600061307a82613053565b613084818561305e565b9350613094818560208601611eb0565b61309d81611eda565b840191505092915050565b60006080820190506130bd6000830187611fdb565b6130ca6020830186611fdb565b6130d760408301856122a5565b81810360608301526130e9818461306f565b905095945050505050565b60008151905061310381611e05565b92915050565b60006020828403121561311f5761311e611dcf565b5b600061312d848285016130f4565b91505092915050565b7f4552433732313a206d696e7420746f20746865207a65726f2061646472657373600082015250565b600061316c602083611e9f565b915061317782613136565b602082019050919050565b6000602082019050818103600083015261319b8161315f565b9050919050565b7f4552433732313a20746f6b656e20616c7265616479206d696e74656400000000600082015250565b60006131d8601c83611e9f565b91506131e3826131a2565b602082019050919050565b60006020820190508181036000830152613207816131cb565b905091905056fe4142434445464748494a4b4c4d4e4f505152535455565758595a6162636465666768696a6b6c6d6e6f707172737475767778797a303132333435363738392b2fa264697066735822122097593a9b41608c2c904b11fb4ff0489a31727e054ae4cc5ae5cb28894e3da6ae64736f6c634300081100334142434445464748494a4b4c4d4e4f505152535455565758595a6162636465666768696a6b6c6d6e6f707172737475767778797a303132333435363738392b2f",
  "linkReferences": {},
  "deployedLinkReferences": {}
}