{
  "address": "0x3c799a835960e7A08fFF91b61f232c506887a934",
  "abi": [
    {
      "inputs": [
        {
          "internalType": "address",
          "name": "vrfCoordinatorV2",
          "type": "address"
        },
        {
          "internalType": "uint64",
          "name": "subscriptionId",
          "type": "uint64"
        },
        {
          "internalType": "bytes32",
          "name": "gasLane",
          "type": "bytes32"
        },
        {
          "internalType": "uint32",
          "name": "callbackGasLimit",
          "type": "uint32"
        },
        {
          "internalType": "string[3]",
          "name": "dogTokenUris",
          "type": "string[3]"
        },
        {
          "internalType": "uint256",
          "name": "mintFee",
          "type": "uint256"
        }
      ],
      "stateMutability": "nonpayable",
      "type": "constructor"
    },
    {
      "inputs": [
        {
          "internalType": "address",
          "name": "have",
          "type": "address"
        },
        {
          "internalType": "address",
          "name": "want",
          "type": "address"
        }
      ],
      "name": "OnlyCoordinatorCanFulfill",
      "type": "error"
    },
    {
      "inputs": [],
      "name": "RandomIpfsNft__NeedMoreEthSent",
      "type": "error"
    },
    {
      "inputs": [],
      "name": "RandomIpfsNft__RangeOutOfBounds",
      "type": "error"
    },
    {
      "inputs": [],
      "name": "RandomIpfsNft__TransferFailed",
      "type": "error"
    },
    {
      "anonymous": false,
      "inputs": [
        {
          "indexed": true,
          "internalType": "address",
          "name": "owner",
          "type": "address"
        },
        {
          "indexed": true,
          "internalType": "address",
          "name": "approved",
          "type": "address"
        },
        {
          "indexed": true,
          "internalType": "uint256",
          "name": "tokenId",
          "type": "uint256"
        }
      ],
      "name": "Approval",
      "type": "event"
    },
    {
      "anonymous": false,
      "inputs": [
        {
          "indexed": true,
          "internalType": "address",
          "name": "owner",
          "type": "address"
        },
        {
          "indexed": true,
          "internalType": "address",
          "name": "operator",
          "type": "address"
        },
        {
          "indexed": false,
          "internalType": "bool",
          "name": "approved",
          "type": "bool"
        }
      ],
      "name": "ApprovalForAll",
      "type": "event"
    },
    {
      "anonymous": false,
      "inputs": [
        {
          "indexed": false,
          "internalType": "enum RandomIpfsNft.Breed",
          "name": "dogBreed",
          "type": "uint8"
        },
        {
          "indexed": false,
          "internalType": "address",
          "name": "minter",
          "type": "address"
        }
      ],
      "name": "NftMinted",
      "type": "event"
    },
    {
      "anonymous": false,
      "inputs": [
        {
          "indexed": true,
          "internalType": "uint256",
          "name": "requestId",
          "type": "uint256"
        },
        {
          "indexed": false,
          "internalType": "address",
          "name": "requester",
          "type": "address"
        }
      ],
      "name": "NftRequested",
      "type": "event"
    },
    {
      "anonymous": false,
      "inputs": [
        {
          "indexed": true,
          "internalType": "address",
          "name": "previousOwner",
          "type": "address"
        },
        {
          "indexed": true,
          "internalType": "address",
          "name": "newOwner",
          "type": "address"
        }
      ],
      "name": "OwnershipTransferred",
      "type": "event"
    },
    {
      "anonymous": false,
      "inputs": [
        {
          "indexed": true,
          "internalType": "address",
          "name": "from",
          "type": "address"
        },
        {
          "indexed": true,
          "internalType": "address",
          "name": "to",
          "type": "address"
        },
        {
          "indexed": true,
          "internalType": "uint256",
          "name": "tokenId",
          "type": "uint256"
        }
      ],
      "name": "Transfer",
      "type": "event"
    },
    {
      "inputs": [
        {
          "internalType": "address",
          "name": "to",
          "type": "address"
        },
        {
          "internalType": "uint256",
          "name": "tokenId",
          "type": "uint256"
        }
      ],
      "name": "approve",
      "outputs": [],
      "stateMutability": "nonpayable",
      "type": "function"
    },
    {
      "inputs": [
        {
          "internalType": "address",
          "name": "owner",
          "type": "address"
        }
      ],
      "name": "balanceOf",
      "outputs": [
        {
          "internalType": "uint256",
          "name": "",
          "type": "uint256"
        }
      ],
      "stateMutability": "view",
      "type": "function"
    },
    {
      "inputs": [
        {
          "internalType": "uint256",
          "name": "tokenId",
          "type": "uint256"
        }
      ],
      "name": "getApproved",
      "outputs": [
        {
          "internalType": "address",
          "name": "",
          "type": "address"
        }
      ],
      "stateMutability": "view",
      "type": "function"
    },
    {
      "inputs": [
        {
          "internalType": "uint256",
          "name": "moddedRng",
          "type": "uint256"
        }
      ],
      "name": "getBreedFromModdedRng",
      "outputs": [
        {
          "internalType": "enum RandomIpfsNft.Breed",
          "name": "",
          "type": "uint8"
        }
      ],
      "stateMutability": "pure",
      "type": "function"
    },
    {
      "inputs": [],
      "name": "getChanceArray",
      "outputs": [
        {
          "internalType": "uint256[3]",
          "name": "",
          "type": "uint256[3]"
        }
      ],
      "stateMutability": "pure",
      "type": "function"
    },
    {
      "inputs": [
        {
          "internalType": "uint256",
          "name": "index",
          "type": "uint256"
        }
      ],
      "name": "getDogTokenUris",
      "outputs": [
        {
          "internalType": "string",
          "name": "",
          "type": "string"
        }
      ],
      "stateMutability": "view",
      "type": "function"
    },
    {
      "inputs": [],
      "name": "getMintFee",
      "outputs": [
        {
          "internalType": "uint256",
          "name": "",
          "type": "uint256"
        }
      ],
      "stateMutability": "view",
      "type": "function"
    },
    {
      "inputs": [],
      "name": "getTokenCounter",
      "outputs": [
        {
          "internalType": "uint256",
          "name": "",
          "type": "uint256"
        }
      ],
      "stateMutability": "view",
      "type": "function"
    },
    {
      "inputs": [
        {
          "internalType": "address",
          "name": "owner",
          "type": "address"
        },
        {
          "internalType": "address",
          "name": "operator",
          "type": "address"
        }
      ],
      "name": "isApprovedForAll",
      "outputs": [
        {
          "internalType": "bool",
          "name": "",
          "type": "bool"
        }
      ],
      "stateMutability": "view",
      "type": "function"
    },
    {
      "inputs": [],
      "name": "name",
      "outputs": [
        {
          "internalType": "string",
          "name": "",
          "type": "string"
        }
      ],
      "stateMutability": "view",
      "type": "function"
    },
    {
      "inputs": [],
      "name": "owner",
      "outputs": [
        {
          "internalType": "address",
          "name": "",
          "type": "address"
        }
      ],
      "stateMutability": "view",
      "type": "function"
    },
    {
      "inputs": [
        {
          "internalType": "uint256",
          "name": "tokenId",
          "type": "uint256"
        }
      ],
      "name": "ownerOf",
      "outputs": [
        {
          "internalType": "address",
          "name": "",
          "type": "address"
        }
      ],
      "stateMutability": "view",
      "type": "function"
    },
    {
      "inputs": [
        {
          "internalType": "uint256",
          "name": "requestId",
          "type": "uint256"
        },
        {
          "internalType": "uint256[]",
          "name": "randomWords",
          "type": "uint256[]"
        }
      ],
      "name": "rawFulfillRandomWords",
      "outputs": [],
      "stateMutability": "nonpayable",
      "type": "function"
    },
    {
      "inputs": [],
      "name": "renounceOwnership",
      "outputs": [],
      "stateMutability": "nonpayable",
      "type": "function"
    },
    {
      "inputs": [],
      "name": "requestNft",
      "outputs": [
        {
          "internalType": "uint256",
          "name": "requestId",
          "type": "uint256"
        }
      ],
      "stateMutability": "payable",
      "type": "function"
    },
    {
      "inputs": [
        {
          "internalType": "uint256",
          "name": "",
          "type": "uint256"
        }
      ],
      "name": "s_requestIdToSender",
      "outputs": [
        {
          "internalType": "address",
          "name": "",
          "type": "address"
        }
      ],
      "stateMutability": "view",
      "type": "function"
    },
    {
      "inputs": [],
      "name": "s_tokenCounter",
      "outputs": [
        {
          "internalType": "uint256",
          "name": "",
          "type": "uint256"
        }
      ],
      "stateMutability": "view",
      "type": "function"
    },
    {
      "inputs": [
        {
          "internalType": "address",
          "name": "from",
          "type": "address"
        },
        {
          "internalType": "address",
          "name": "to",
          "type": "address"
        },
        {
          "internalType": "uint256",
          "name": "tokenId",
          "type": "uint256"
        }
      ],
      "name": "safeTransferFrom",
      "outputs": [],
      "stateMutability": "nonpayable",
      "type": "function"
    },
    {
      "inputs": [
        {
          "internalType": "address",
          "name": "from",
          "type": "address"
        },
        {
          "internalType": "address",
          "name": "to",
          "type": "address"
        },
        {
          "internalType": "uint256",
          "name": "tokenId",
          "type": "uint256"
        },
        {
          "internalType": "bytes",
          "name": "data",
          "type": "bytes"
        }
      ],
      "name": "safeTransferFrom",
      "outputs": [],
      "stateMutability": "nonpayable",
      "type": "function"
    },
    {
      "inputs": [
        {
          "internalType": "address",
          "name": "operator",
          "type": "address"
        },
        {
          "internalType": "bool",
          "name": "approved",
          "type": "bool"
        }
      ],
      "name": "setApprovalForAll",
      "outputs": [],
      "stateMutability": "nonpayable",
      "type": "function"
    },
    {
      "inputs": [
        {
          "internalType": "bytes4",
          "name": "interfaceId",
          "type": "bytes4"
        }
      ],
      "name": "supportsInterface",
      "outputs": [
        {
          "internalType": "bool",
          "name": "",
          "type": "bool"
        }
      ],
      "stateMutability": "view",
      "type": "function"
    },
    {
      "inputs": [],
      "name": "symbol",
      "outputs": [
        {
          "internalType": "string",
          "name": "",
          "type": "string"
        }
      ],
      "stateMutability": "view",
      "type": "function"
    },
    {
      "inputs": [
        {
          "internalType": "uint256",
          "name": "tokenId",
          "type": "uint256"
        }
      ],
      "name": "tokenURI",
      "outputs": [
        {
          "internalType": "string",
          "name": "",
          "type": "string"
        }
      ],
      "stateMutability": "view",
      "type": "function"
    },
    {
      "inputs": [
        {
          "internalType": "address",
          "name": "from",
          "type": "address"
        },
        {
          "internalType": "address",
          "name": "to",
          "type": "address"
        },
        {
          "internalType": "uint256",
          "name": "tokenId",
          "type": "uint256"
        }
      ],
      "name": "transferFrom",
      "outputs": [],
      "stateMutability": "nonpayable",
      "type": "function"
    },
    {
      "inputs": [
        {
          "internalType": "address",
          "name": "newOwner",
          "type": "address"
        }
      ],
      "name": "transferOwnership",
      "outputs": [],
      "stateMutability": "nonpayable",
      "type": "function"
    },
    {
      "inputs": [],
      "name": "withdraw",
      "outputs": [],
      "stateMutability": "nonpayable",
      "type": "function"
    }
  ],
  "transactionHash": "0x3157231483cf62f9a84b83563f3342d51bb677b40873654b6986763bd42176d5",
  "args": [
    "0x2Ca8E0C643bDe4C2E08ab1fA0da3401AdAD7734D",
    "1867",
    "0x79d3d8832d904592c0bf9818b621522c988bb8b0c05cdc3b15aea1b6e8db0c15",
    "500000",
    [
      "ipfs://QmZpwPc48ngDXBBYEDAMuhECDemnAHK59hRZXYGc8oiKxv",
      "ipfs://QmTLCfKcFuc7MmuPxtD2mE7kk9xGRQVGAGwpspQ5syBf8B",
      "ipfs://QmVWaPxzpuzij2pXVQRUFUE1iYjiayK3sWpBU7vk4N29U3"
    ],
    "1000000000000000"
  ],
  "numDeployments": 1,
  "solcInputHash": "571d73fa3650286f3b1dc1056a3ee7d6",
  "bytecode": "0x6101206040523480156200001257600080fd5b50604051620046403803806200464083398181016040528101906200003891906200074d565b6040518060400160405280600f81526020017f52616e646f6d2049504653204e465400000000000000000000000000000000008152506040518060400160405280600381526020017f52494e0000000000000000000000000000000000000000000000000000000000815250878073ffffffffffffffffffffffffffffffffffffffff1660808173ffffffffffffffffffffffffffffffffffffffff1681525050508160009081620000eb919062000a49565b508060019081620000fd919062000a49565b5050506200012062000114620001b460201b60201c565b620001bc60201b60201c565b8573ffffffffffffffffffffffffffffffffffffffff1660a08173ffffffffffffffffffffffffffffffffffffffff16815250508467ffffffffffffffff1660c08167ffffffffffffffff16815250508360e081815250508263ffffffff166101008163ffffffff168152505081600a906003620001a092919062000282565b5080600b8190555050505050505062000b30565b600033905090565b6000600760009054906101000a900473ffffffffffffffffffffffffffffffffffffffff16905081600760006101000a81548173ffffffffffffffffffffffffffffffffffffffff021916908373ffffffffffffffffffffffffffffffffffffffff1602179055508173ffffffffffffffffffffffffffffffffffffffff168173ffffffffffffffffffffffffffffffffffffffff167f8be0079c531659141344cd1fd0a4f28419497f9722a3daafe3b4186f6b6457e060405160405180910390a35050565b828054828255906000526020600020908101928215620002cf579160200282015b82811115620002ce578251829081620002bd919062000a49565b5091602001919060010190620002a3565b5b509050620002de9190620002e2565b5090565b5b80821115620003065760008181620002fc91906200030a565b50600101620002e3565b5090565b508054620003189062000842565b6000825580601f106200032c57506200034d565b601f0160209004906000526020600020908101906200034c919062000350565b5b50565b5b808211156200036b57600081600090555060010162000351565b5090565b6000604051905090565b600080fd5b600080fd5b600073ffffffffffffffffffffffffffffffffffffffff82169050919050565b6000620003b08262000383565b9050919050565b620003c281620003a3565b8114620003ce57600080fd5b50565b600081519050620003e281620003b7565b92915050565b600067ffffffffffffffff82169050919050565b6200040781620003e8565b81146200041357600080fd5b50565b6000815190506200042781620003fc565b92915050565b6000819050919050565b62000442816200042d565b81146200044e57600080fd5b50565b600081519050620004628162000437565b92915050565b600063ffffffff82169050919050565b620004838162000468565b81146200048f57600080fd5b50565b600081519050620004a38162000478565b92915050565b600080fd5b6000601f19601f8301169050919050565b7f4e487b7100000000000000000000000000000000000000000000000000000000600052604160045260246000fd5b620004f982620004ae565b810181811067ffffffffffffffff821117156200051b576200051a620004bf565b5b80604052505050565b6000620005306200036f565b90506200053e8282620004ee565b919050565b600067ffffffffffffffff821115620005615762000560620004bf565b5b602082029050919050565b600080fd5b600080fd5b600067ffffffffffffffff821115620005945762000593620004bf565b5b6200059f82620004ae565b9050602081019050919050565b60005b83811015620005cc578082015181840152602081019050620005af565b60008484015250505050565b6000620005ef620005e98462000576565b62000524565b9050828152602081018484840111156200060e576200060d62000571565b5b6200061b848285620005ac565b509392505050565b600082601f8301126200063b576200063a620004a9565b5b81516200064d848260208601620005d8565b91505092915050565b60006200066d620006678462000543565b62000524565b905080602084028301858111156200068a57620006896200056c565b5b835b81811015620006d857805167ffffffffffffffff811115620006b357620006b2620004a9565b5b808601620006c2898262000623565b855260208501945050506020810190506200068c565b5050509392505050565b600082601f830112620006fa57620006f9620004a9565b5b60036200070984828562000656565b91505092915050565b6000819050919050565b620007278162000712565b81146200073357600080fd5b50565b60008151905062000747816200071c565b92915050565b60008060008060008060c087890312156200076d576200076c62000379565b5b60006200077d89828a01620003d1565b96505060206200079089828a0162000416565b9550506040620007a389828a0162000451565b9450506060620007b689828a0162000492565b935050608087015167ffffffffffffffff811115620007da57620007d96200037e565b5b620007e889828a01620006e2565b92505060a0620007fb89828a0162000736565b9150509295509295509295565b600081519050919050565b7f4e487b7100000000000000000000000000000000000000000000000000000000600052602260045260246000fd5b600060028204905060018216806200085b57607f821691505b60208210810362000871576200087062000813565b5b50919050565b60008190508160005260206000209050919050565b60006020601f8301049050919050565b600082821b905092915050565b600060088302620008db7fffffffffffffffffffffffffffffffffffffffffffffffffffffffffffffffff826200089c565b620008e786836200089c565b95508019841693508086168417925050509392505050565b6000819050919050565b60006200092a620009246200091e8462000712565b620008ff565b62000712565b9050919050565b6000819050919050565b620009468362000909565b6200095e620009558262000931565b848454620008a9565b825550505050565b600090565b6200097562000966565b620009828184846200093b565b505050565b5b81811015620009aa576200099e6000826200096b565b60018101905062000988565b5050565b601f821115620009f957620009c38162000877565b620009ce846200088c565b81016020851015620009de578190505b620009f6620009ed856200088c565b83018262000987565b50505b505050565b600082821c905092915050565b600062000a1e60001984600802620009fe565b1980831691505092915050565b600062000a39838362000a0b565b9150826002028217905092915050565b62000a548262000808565b67ffffffffffffffff81111562000a705762000a6f620004bf565b5b62000a7c825462000842565b62000a89828285620009ae565b600060209050601f83116001811462000ac1576000841562000aac578287015190505b62000ab8858262000a2b565b86555062000b28565b601f19841662000ad18662000877565b60005b8281101562000afb5784890151825560018201915060208501945060208101905062000ad4565b8683101562000b1b578489015162000b17601f89168262000a0b565b8355505b6001600288020188555050505b505050505050565b60805160a05160c05160e05161010051613ac462000b7c600039600061102001526000610fdc01526000610ffd01526000610fa001526000818161091c01526109700152613ac46000f3fe6080604052600436106101815760003560e01c806370a08231116100d1578063a36f573b1161008a578063b88d4fde11610064578063b88d4fde14610577578063c87b56dd146105a0578063e985e9c5146105dd578063f2fde38b1461061a57610181565b8063a36f573b146104df578063a51cccf31461051c578063aa1524911461055957610181565b806370a08231146103e1578063715018a61461041e5780637a5caab3146104355780638da5cb5b1461046057806395d89b411461048b578063a22cb465146104b657610181565b806323b872dd1161013e57806342842e0e1161011857806342842e0e146103255780635dacf5f41461034e5780636352211e146103795780636e02007d146103b657610181565b806323b872dd146102a85780633af25975146102d15780633ccfd60b1461030e57610181565b806301ffc9a71461018657806306fdde03146101c3578063081812fc146101ee578063095ea7b31461022b5780630b21a83b146102545780631fe543e31461027f575b600080fd5b34801561019257600080fd5b506101ad60048036038101906101a89190612421565b610643565b6040516101ba9190612469565b60405180910390f35b3480156101cf57600080fd5b506101d8610725565b6040516101e59190612514565b60405180910390f35b3480156101fa57600080fd5b506102156004803603810190610210919061256c565b6107b7565b60405161022291906125da565b60405180910390f35b34801561023757600080fd5b50610252600480360381019061024d9190612621565b6107fd565b005b34801561026057600080fd5b50610269610914565b6040516102769190612670565b60405180910390f35b34801561028b57600080fd5b506102a660048036038101906102a191906127d3565b61091a565b005b3480156102b457600080fd5b506102cf60048036038101906102ca919061282f565b6109da565b005b3480156102dd57600080fd5b506102f860048036038101906102f3919061256c565b610a3a565b6040516103059190612514565b60405180910390f35b34801561031a57600080fd5b50610323610aea565b005b34801561033157600080fd5b5061034c6004803603810190610347919061282f565b610b9e565b005b34801561035a57600080fd5b50610363610bbe565b604051610370919061292d565b60405180910390f35b34801561038557600080fd5b506103a0600480360381019061039b919061256c565b610be9565b6040516103ad91906125da565b60405180910390f35b3480156103c257600080fd5b506103cb610c9a565b6040516103d89190612670565b60405180910390f35b3480156103ed57600080fd5b5061040860048036038101906104039190612948565b610ca4565b6040516104159190612670565b60405180910390f35b34801561042a57600080fd5b50610433610d5b565b005b34801561044157600080fd5b5061044a610d6f565b6040516104579190612670565b60405180910390f35b34801561046c57600080fd5b50610475610d79565b60405161048291906125da565b60405180910390f35b34801561049757600080fd5b506104a0610da3565b6040516104ad9190612514565b60405180910390f35b3480156104c257600080fd5b506104dd60048036038101906104d891906129a1565b610e35565b005b3480156104eb57600080fd5b506105066004803603810190610501919061256c565b610e4b565b60405161051391906125da565b60405180910390f35b34801561052857600080fd5b50610543600480360381019061053e919061256c565b610e7e565b6040516105509190612a58565b60405180910390f35b610561610f60565b60405161056e9190612670565b60405180910390f35b34801561058357600080fd5b5061059e60048036038101906105999190612b28565b611133565b005b3480156105ac57600080fd5b506105c760048036038101906105c2919061256c565b611195565b6040516105d49190612514565b60405180910390f35b3480156105e957600080fd5b5061060460048036038101906105ff9190612bab565b6112a7565b6040516106119190612469565b60405180910390f35b34801561062657600080fd5b50610641600480360381019061063c9190612948565b61133b565b005b60007f80ac58cd000000000000000000000000000000000000000000000000000000007bffffffffffffffffffffffffffffffffffffffffffffffffffffffff1916827bffffffffffffffffffffffffffffffffffffffffffffffffffffffff1916148061070e57507f5b5e139f000000000000000000000000000000000000000000000000000000007bffffffffffffffffffffffffffffffffffffffffffffffffffffffff1916827bffffffffffffffffffffffffffffffffffffffffffffffffffffffff1916145b8061071e575061071d826113be565b5b9050919050565b60606000805461073490612c1a565b80601f016020809104026020016040519081016040528092919081815260200182805461076090612c1a565b80156107ad5780601f10610782576101008083540402835291602001916107ad565b820191906000526020600020905b81548152906001019060200180831161079057829003601f168201915b5050505050905090565b60006107c282611428565b6004600083815260200190815260200160002060009054906101000a900473ffffffffffffffffffffffffffffffffffffffff169050919050565b600061080882610be9565b90508073ffffffffffffffffffffffffffffffffffffffff168373ffffffffffffffffffffffffffffffffffffffff1603610878576040517f08c379a000000000000000000000000000000000000000000000000000000000815260040161086f90612cbd565b60405180910390fd5b8073ffffffffffffffffffffffffffffffffffffffff16610897611473565b73ffffffffffffffffffffffffffffffffffffffff1614806108c657506108c5816108c0611473565b6112a7565b5b610905576040517f08c379a00000000000000000000000000000000000000000000000000000000081526004016108fc90612d4f565b60405180910390fd5b61090f838361147b565b505050565b60095481565b7f000000000000000000000000000000000000000000000000000000000000000073ffffffffffffffffffffffffffffffffffffffff163373ffffffffffffffffffffffffffffffffffffffff16146109cc57337f00000000000000000000000000000000000000000000000000000000000000006040517f1cf993f40000000000000000000000000000000000000000000000000000000081526004016109c3929190612d6f565b60405180910390fd5b6109d68282611534565b5050565b6109eb6109e5611473565b826116ce565b610a2a576040517f08c379a0000000000000000000000000000000000000000000000000000000008152600401610a2190612e0a565b60405180910390fd5b610a35838383611763565b505050565b6060600a8281548110610a5057610a4f612e2a565b5b906000526020600020018054610a6590612c1a565b80601f0160208091040260200160405190810160405280929190818152602001828054610a9190612c1a565b8015610ade5780601f10610ab357610100808354040283529160200191610ade565b820191906000526020600020905b815481529060010190602001808311610ac157829003601f168201915b50505050509050919050565b610af26119c9565b600047905060003373ffffffffffffffffffffffffffffffffffffffff1682604051610b1d90612e8a565b60006040518083038185875af1925050503d8060008114610b5a576040519150601f19603f3d011682016040523d82523d6000602084013e610b5f565b606091505b5050905080610b9a576040517fca7e25b700000000000000000000000000000000000000000000000000000000815260040160405180910390fd5b5050565b610bb983838360405180602001604052806000815250611133565b505050565b610bc6612393565b6040518060600160405280600a8152602001601e81526020016064815250905090565b6000806002600084815260200190815260200160002060009054906101000a900473ffffffffffffffffffffffffffffffffffffffff169050600073ffffffffffffffffffffffffffffffffffffffff168173ffffffffffffffffffffffffffffffffffffffff1603610c91576040517f08c379a0000000000000000000000000000000000000000000000000000000008152600401610c8890612eeb565b60405180910390fd5b80915050919050565b6000600954905090565b60008073ffffffffffffffffffffffffffffffffffffffff168273ffffffffffffffffffffffffffffffffffffffff1603610d14576040517f08c379a0000000000000000000000000000000000000000000000000000000008152600401610d0b90612f7d565b60405180910390fd5b600360008373ffffffffffffffffffffffffffffffffffffffff1673ffffffffffffffffffffffffffffffffffffffff168152602001908152602001600020549050919050565b610d636119c9565b610d6d6000611a47565b565b6000600b54905090565b6000600760009054906101000a900473ffffffffffffffffffffffffffffffffffffffff16905090565b606060018054610db290612c1a565b80601f0160208091040260200160405190810160405280929190818152602001828054610dde90612c1a565b8015610e2b5780601f10610e0057610100808354040283529160200191610e2b565b820191906000526020600020905b815481529060010190602001808311610e0e57829003601f168201915b5050505050905090565b610e47610e40611473565b8383611b0d565b5050565b60086020528060005260406000206000915054906101000a900473ffffffffffffffffffffffffffffffffffffffff1681565b600080600090506000610e8f610bbe565b905060005b6003811015610f2857828510158015610ece5750818160038110610ebb57610eba612e2a565b5b602002015183610ecb9190612fcc565b85105b15610ef057806002811115610ee657610ee56129e1565b5b9350505050610f5b565b818160038110610f0357610f02612e2a565b5b602002015183610f139190612fcc565b92508080610f2090613000565b915050610e94565b506040517f12806c9d00000000000000000000000000000000000000000000000000000000815260040160405180910390fd5b919050565b6000600b54341015610f9e576040517ff64fbfee00000000000000000000000000000000000000000000000000000000815260040160405180910390fd5b7f000000000000000000000000000000000000000000000000000000000000000073ffffffffffffffffffffffffffffffffffffffff16635d3b1d307f00000000000000000000000000000000000000000000000000000000000000007f000000000000000000000000000000000000000000000000000000000000000060037f000000000000000000000000000000000000000000000000000000000000000060016040518663ffffffff1660e01b81526004016110619594939291906130c0565b6020604051808303816000875af1158015611080573d6000803e3d6000fd5b505050506040513d601f19601f820116820180604052508101906110a49190613128565b9050336008600083815260200190815260200160002060006101000a81548173ffffffffffffffffffffffffffffffffffffffff021916908373ffffffffffffffffffffffffffffffffffffffff160217905550807ff873236e6cc0ecc5be1a9a35c95ee5b8d1ac4cc7bfef0cc5060391d6cc98e26b3360405161112891906125da565b60405180910390a290565b61114461113e611473565b836116ce565b611183576040517f08c379a000000000000000000000000000000000000000000000000000000000815260040161117a90612e0a565b60405180910390fd5b61118f84848484611c79565b50505050565b60606111a082611428565b60006006600084815260200190815260200160002080546111c090612c1a565b80601f01602080910402602001604051908101604052809291908181526020018280546111ec90612c1a565b80156112395780601f1061120e57610100808354040283529160200191611239565b820191906000526020600020905b81548152906001019060200180831161121c57829003601f168201915b50505050509050600061124a611cd5565b9050600081510361125f5781925050506112a2565b60008251111561129457808260405160200161127c929190613191565b604051602081830303815290604052925050506112a2565b61129d84611cec565b925050505b919050565b6000600560008473ffffffffffffffffffffffffffffffffffffffff1673ffffffffffffffffffffffffffffffffffffffff16815260200190815260200160002060008373ffffffffffffffffffffffffffffffffffffffff1673ffffffffffffffffffffffffffffffffffffffff16815260200190815260200160002060009054906101000a900460ff16905092915050565b6113436119c9565b600073ffffffffffffffffffffffffffffffffffffffff168173ffffffffffffffffffffffffffffffffffffffff16036113b2576040517f08c379a00000000000000000000000000000000000000000000000000000000081526004016113a990613227565b60405180910390fd5b6113bb81611a47565b50565b60007f01ffc9a7000000000000000000000000000000000000000000000000000000007bffffffffffffffffffffffffffffffffffffffffffffffffffffffff1916827bffffffffffffffffffffffffffffffffffffffffffffffffffffffff1916149050919050565b61143181611d54565b611470576040517f08c379a000000000000000000000000000000000000000000000000000000000815260040161146790612eeb565b60405180910390fd5b50565b600033905090565b816004600083815260200190815260200160002060006101000a81548173ffffffffffffffffffffffffffffffffffffffff021916908373ffffffffffffffffffffffffffffffffffffffff160217905550808273ffffffffffffffffffffffffffffffffffffffff166114ee83610be9565b73ffffffffffffffffffffffffffffffffffffffff167f8c5be1e5ebec7d5bd14f71427d1e84f3dd0314c0f7b2291e5b200ac8c7c3b92560405160405180910390a45050565b60006008600084815260200190815260200160002060009054906101000a900473ffffffffffffffffffffffffffffffffffffffff1690506000600954905060016009546115829190612fcc565b60098190555060006064846000815181106115a05761159f612e2a565b5b60200260200101516115b29190613276565b905060006115bf82610e7e565b90506115cb8484611dc0565b61168d83600a8360028111156115e4576115e36129e1565b5b815481106115f5576115f4612e2a565b5b90600052602060002001805461160a90612c1a565b80601f016020809104026020016040519081016040528092919081815260200182805461163690612c1a565b80156116835780601f1061165857610100808354040283529160200191611683565b820191906000526020600020905b81548152906001019060200180831161166657829003601f168201915b5050505050611dde565b7f8a269f26b688e110e9cbd887d163dab35cae678fa353a0292de532c0cac1ecdc81856040516116be9291906132a7565b60405180910390a1505050505050565b6000806116da83610be9565b90508073ffffffffffffffffffffffffffffffffffffffff168473ffffffffffffffffffffffffffffffffffffffff16148061171c575061171b81856112a7565b5b8061175a57508373ffffffffffffffffffffffffffffffffffffffff16611742846107b7565b73ffffffffffffffffffffffffffffffffffffffff16145b91505092915050565b8273ffffffffffffffffffffffffffffffffffffffff1661178382610be9565b73ffffffffffffffffffffffffffffffffffffffff16146117d9576040517f08c379a00000000000000000000000000000000000000000000000000000000081526004016117d090613342565b60405180910390fd5b600073ffffffffffffffffffffffffffffffffffffffff168273ffffffffffffffffffffffffffffffffffffffff1603611848576040517f08c379a000000000000000000000000000000000000000000000000000000000815260040161183f906133d4565b60405180910390fd5b611853838383611e4b565b61185e60008261147b565b6001600360008573ffffffffffffffffffffffffffffffffffffffff1673ffffffffffffffffffffffffffffffffffffffff16815260200190815260200160002060008282546118ae91906133f4565b925050819055506001600360008473ffffffffffffffffffffffffffffffffffffffff1673ffffffffffffffffffffffffffffffffffffffff16815260200190815260200160002060008282546119059190612fcc565b92505081905550816002600083815260200190815260200160002060006101000a81548173ffffffffffffffffffffffffffffffffffffffff021916908373ffffffffffffffffffffffffffffffffffffffff160217905550808273ffffffffffffffffffffffffffffffffffffffff168473ffffffffffffffffffffffffffffffffffffffff167fddf252ad1be2c89b69c2b068fc378daa952ba7f163c4a11628f55a4df523b3ef60405160405180910390a46119c4838383611e50565b505050565b6119d1611473565b73ffffffffffffffffffffffffffffffffffffffff166119ef610d79565b73ffffffffffffffffffffffffffffffffffffffff1614611a45576040517f08c379a0000000000000000000000000000000000000000000000000000000008152600401611a3c90613474565b60405180910390fd5b565b6000600760009054906101000a900473ffffffffffffffffffffffffffffffffffffffff16905081600760006101000a81548173ffffffffffffffffffffffffffffffffffffffff021916908373ffffffffffffffffffffffffffffffffffffffff1602179055508173ffffffffffffffffffffffffffffffffffffffff168173ffffffffffffffffffffffffffffffffffffffff167f8be0079c531659141344cd1fd0a4f28419497f9722a3daafe3b4186f6b6457e060405160405180910390a35050565b8173ffffffffffffffffffffffffffffffffffffffff168373ffffffffffffffffffffffffffffffffffffffff1603611b7b576040517f08c379a0000000000000000000000000000000000000000000000000000000008152600401611b72906134e0565b60405180910390fd5b80600560008573ffffffffffffffffffffffffffffffffffffffff1673ffffffffffffffffffffffffffffffffffffffff16815260200190815260200160002060008473ffffffffffffffffffffffffffffffffffffffff1673ffffffffffffffffffffffffffffffffffffffff16815260200190815260200160002060006101000a81548160ff0219169083151502179055508173ffffffffffffffffffffffffffffffffffffffff168373ffffffffffffffffffffffffffffffffffffffff167f17307eab39ab6107e8899845ad3d59bd9653f200f220920489ca2b5937696c3183604051611c6c9190612469565b60405180910390a3505050565b611c84848484611763565b611c9084848484611e55565b611ccf576040517f08c379a0000000000000000000000000000000000000000000000000000000008152600401611cc690613572565b60405180910390fd5b50505050565b606060405180602001604052806000815250905090565b6060611cf782611428565b6000611d01611cd5565b90506000815111611d215760405180602001604052806000815250611d4c565b80611d2b84611fdc565b604051602001611d3c929190613191565b6040516020818303038152906040525b915050919050565b60008073ffffffffffffffffffffffffffffffffffffffff166002600084815260200190815260200160002060009054906101000a900473ffffffffffffffffffffffffffffffffffffffff1673ffffffffffffffffffffffffffffffffffffffff1614159050919050565b611dda82826040518060200160405280600081525061213c565b5050565b611de782611d54565b611e26576040517f08c379a0000000000000000000000000000000000000000000000000000000008152600401611e1d90613604565b60405180910390fd5b80600660008481526020019081526020016000209081611e4691906137d0565b505050565b505050565b505050565b6000611e768473ffffffffffffffffffffffffffffffffffffffff16612197565b15611fcf578373ffffffffffffffffffffffffffffffffffffffff1663150b7a02611e9f611473565b8786866040518563ffffffff1660e01b8152600401611ec194939291906138f7565b6020604051808303816000875af1925050508015611efd57506040513d601f19601f82011682018060405250810190611efa9190613958565b60015b611f7f573d8060008114611f2d576040519150601f19603f3d011682016040523d82523d6000602084013e611f32565b606091505b506000815103611f77576040517f08c379a0000000000000000000000000000000000000000000000000000000008152600401611f6e90613572565b60405180910390fd5b805181602001fd5b63150b7a0260e01b7bffffffffffffffffffffffffffffffffffffffffffffffffffffffff1916817bffffffffffffffffffffffffffffffffffffffffffffffffffffffff191614915050611fd4565b600190505b949350505050565b606060008203612023576040518060400160405280600181526020017f30000000000000000000000000000000000000000000000000000000000000008152509050612137565b600082905060005b6000821461205557808061203e90613000565b915050600a8261204e9190613985565b915061202b565b60008167ffffffffffffffff81111561207157612070612690565b5b6040519080825280601f01601f1916602001820160405280156120a35781602001600182028036833780820191505090505b5090505b60008514612130576001826120bc91906133f4565b9150600a856120cb9190613276565b60306120d79190612fcc565b60f81b8183815181106120ed576120ec612e2a565b5b60200101907effffffffffffffffffffffffffffffffffffffffffffffffffffffffffffff1916908160001a905350600a856121299190613985565b94506120a7565b8093505050505b919050565b61214683836121ba565b6121536000848484611e55565b612192576040517f08c379a000000000000000000000000000000000000000000000000000000000815260040161218990613572565b60405180910390fd5b505050565b6000808273ffffffffffffffffffffffffffffffffffffffff163b119050919050565b600073ffffffffffffffffffffffffffffffffffffffff168273ffffffffffffffffffffffffffffffffffffffff1603612229576040517f08c379a000000000000000000000000000000000000000000000000000000000815260040161222090613a02565b60405180910390fd5b61223281611d54565b15612272576040517f08c379a000000000000000000000000000000000000000000000000000000000815260040161226990613a6e565b60405180910390fd5b61227e60008383611e4b565b6001600360008473ffffffffffffffffffffffffffffffffffffffff1673ffffffffffffffffffffffffffffffffffffffff16815260200190815260200160002060008282546122ce9190612fcc565b92505081905550816002600083815260200190815260200160002060006101000a81548173ffffffffffffffffffffffffffffffffffffffff021916908373ffffffffffffffffffffffffffffffffffffffff160217905550808273ffffffffffffffffffffffffffffffffffffffff16600073ffffffffffffffffffffffffffffffffffffffff167fddf252ad1be2c89b69c2b068fc378daa952ba7f163c4a11628f55a4df523b3ef60405160405180910390a461238f60008383611e50565b5050565b6040518060600160405280600390602082028036833780820191505090505090565b6000604051905090565b600080fd5b600080fd5b60007fffffffff0000000000000000000000000000000000000000000000000000000082169050919050565b6123fe816123c9565b811461240957600080fd5b50565b60008135905061241b816123f5565b92915050565b600060208284031215612437576124366123bf565b5b60006124458482850161240c565b91505092915050565b60008115159050919050565b6124638161244e565b82525050565b600060208201905061247e600083018461245a565b92915050565b600081519050919050565b600082825260208201905092915050565b60005b838110156124be5780820151818401526020810190506124a3565b60008484015250505050565b6000601f19601f8301169050919050565b60006124e682612484565b6124f0818561248f565b93506125008185602086016124a0565b612509816124ca565b840191505092915050565b6000602082019050818103600083015261252e81846124db565b905092915050565b6000819050919050565b61254981612536565b811461255457600080fd5b50565b60008135905061256681612540565b92915050565b600060208284031215612582576125816123bf565b5b600061259084828501612557565b91505092915050565b600073ffffffffffffffffffffffffffffffffffffffff82169050919050565b60006125c482612599565b9050919050565b6125d4816125b9565b82525050565b60006020820190506125ef60008301846125cb565b92915050565b6125fe816125b9565b811461260957600080fd5b50565b60008135905061261b816125f5565b92915050565b60008060408385031215612638576126376123bf565b5b60006126468582860161260c565b925050602061265785828601612557565b9150509250929050565b61266a81612536565b82525050565b60006020820190506126856000830184612661565b92915050565b600080fd5b7f4e487b7100000000000000000000000000000000000000000000000000000000600052604160045260246000fd5b6126c8826124ca565b810181811067ffffffffffffffff821117156126e7576126e6612690565b5b80604052505050565b60006126fa6123b5565b905061270682826126bf565b919050565b600067ffffffffffffffff82111561272657612725612690565b5b602082029050602081019050919050565b600080fd5b600061274f61274a8461270b565b6126f0565b9050808382526020820190506020840283018581111561277257612771612737565b5b835b8181101561279b57806127878882612557565b845260208401935050602081019050612774565b5050509392505050565b600082601f8301126127ba576127b961268b565b5b81356127ca84826020860161273c565b91505092915050565b600080604083850312156127ea576127e96123bf565b5b60006127f885828601612557565b925050602083013567ffffffffffffffff811115612819576128186123c4565b5b612825858286016127a5565b9150509250929050565b600080600060608486031215612848576128476123bf565b5b60006128568682870161260c565b93505060206128678682870161260c565b925050604061287886828701612557565b9150509250925092565b600060039050919050565b600081905092915050565b6000819050919050565b6128ab81612536565b82525050565b60006128bd83836128a2565b60208301905092915050565b6000602082019050919050565b6128df81612882565b6128e9818461288d565b92506128f482612898565b8060005b8381101561292557815161290c87826128b1565b9650612917836128c9565b9250506001810190506128f8565b505050505050565b600060608201905061294260008301846128d6565b92915050565b60006020828403121561295e5761295d6123bf565b5b600061296c8482850161260c565b91505092915050565b61297e8161244e565b811461298957600080fd5b50565b60008135905061299b81612975565b92915050565b600080604083850312156129b8576129b76123bf565b5b60006129c68582860161260c565b92505060206129d78582860161298c565b9150509250929050565b7f4e487b7100000000000000000000000000000000000000000000000000000000600052602160045260246000fd5b60038110612a2157612a206129e1565b5b50565b6000819050612a3282612a10565b919050565b6000612a4282612a24565b9050919050565b612a5281612a37565b82525050565b6000602082019050612a6d6000830184612a49565b92915050565b600080fd5b600067ffffffffffffffff821115612a9357612a92612690565b5b612a9c826124ca565b9050602081019050919050565b82818337600083830152505050565b6000612acb612ac684612a78565b6126f0565b905082815260208101848484011115612ae757612ae6612a73565b5b612af2848285612aa9565b509392505050565b600082601f830112612b0f57612b0e61268b565b5b8135612b1f848260208601612ab8565b91505092915050565b60008060008060808587031215612b4257612b416123bf565b5b6000612b508782880161260c565b9450506020612b618782880161260c565b9350506040612b7287828801612557565b925050606085013567ffffffffffffffff811115612b9357612b926123c4565b5b612b9f87828801612afa565b91505092959194509250565b60008060408385031215612bc257612bc16123bf565b5b6000612bd08582860161260c565b9250506020612be18582860161260c565b9150509250929050565b7f4e487b7100000000000000000000000000000000000000000000000000000000600052602260045260246000fd5b60006002820490506001821680612c3257607f821691505b602082108103612c4557612c44612beb565b5b50919050565b7f4552433732313a20617070726f76616c20746f2063757272656e74206f776e6560008201527f7200000000000000000000000000000000000000000000000000000000000000602082015250565b6000612ca760218361248f565b9150612cb282612c4b565b604082019050919050565b60006020820190508181036000830152612cd681612c9a565b9050919050565b7f4552433732313a20617070726f76652063616c6c6572206973206e6f7420746f60008201527f6b656e206f776e6572206e6f7220617070726f76656420666f7220616c6c0000602082015250565b6000612d39603e8361248f565b9150612d4482612cdd565b604082019050919050565b60006020820190508181036000830152612d6881612d2c565b9050919050565b6000604082019050612d8460008301856125cb565b612d9160208301846125cb565b9392505050565b7f4552433732313a2063616c6c6572206973206e6f7420746f6b656e206f776e6560008201527f72206e6f7220617070726f766564000000000000000000000000000000000000602082015250565b6000612df4602e8361248f565b9150612dff82612d98565b604082019050919050565b60006020820190508181036000830152612e2381612de7565b9050919050565b7f4e487b7100000000000000000000000000000000000000000000000000000000600052603260045260246000fd5b600081905092915050565b50565b6000612e74600083612e59565b9150612e7f82612e64565b600082019050919050565b6000612e9582612e67565b9150819050919050565b7f4552433732313a20696e76616c696420746f6b656e2049440000000000000000600082015250565b6000612ed560188361248f565b9150612ee082612e9f565b602082019050919050565b60006020820190508181036000830152612f0481612ec8565b9050919050565b7f4552433732313a2061646472657373207a65726f206973206e6f74206120766160008201527f6c6964206f776e65720000000000000000000000000000000000000000000000602082015250565b6000612f6760298361248f565b9150612f7282612f0b565b604082019050919050565b60006020820190508181036000830152612f9681612f5a565b9050919050565b7f4e487b7100000000000000000000000000000000000000000000000000000000600052601160045260246000fd5b6000612fd782612536565b9150612fe283612536565b9250828201905080821115612ffa57612ff9612f9d565b5b92915050565b600061300b82612536565b91507fffffffffffffffffffffffffffffffffffffffffffffffffffffffffffffffff820361303d5761303c612f9d565b5b600182019050919050565b6000819050919050565b61305b81613048565b82525050565b600067ffffffffffffffff82169050919050565b61307e81613061565b82525050565b600061ffff82169050919050565b61309b81613084565b82525050565b600063ffffffff82169050919050565b6130ba816130a1565b82525050565b600060a0820190506130d56000830188613052565b6130e26020830187613075565b6130ef6040830186613092565b6130fc60608301856130b1565b61310960808301846130b1565b9695505050505050565b60008151905061312281612540565b92915050565b60006020828403121561313e5761313d6123bf565b5b600061314c84828501613113565b91505092915050565b600081905092915050565b600061316b82612484565b6131758185613155565b93506131858185602086016124a0565b80840191505092915050565b600061319d8285613160565b91506131a98284613160565b91508190509392505050565b7f4f776e61626c653a206e6577206f776e657220697320746865207a65726f206160008201527f6464726573730000000000000000000000000000000000000000000000000000602082015250565b600061321160268361248f565b915061321c826131b5565b604082019050919050565b6000602082019050818103600083015261324081613204565b9050919050565b7f4e487b7100000000000000000000000000000000000000000000000000000000600052601260045260246000fd5b600061328182612536565b915061328c83612536565b92508261329c5761329b613247565b5b828206905092915050565b60006040820190506132bc6000830185612a49565b6132c960208301846125cb565b9392505050565b7f4552433732313a207472616e736665722066726f6d20696e636f72726563742060008201527f6f776e6572000000000000000000000000000000000000000000000000000000602082015250565b600061332c60258361248f565b9150613337826132d0565b604082019050919050565b6000602082019050818103600083015261335b8161331f565b9050919050565b7f4552433732313a207472616e7366657220746f20746865207a65726f2061646460008201527f7265737300000000000000000000000000000000000000000000000000000000602082015250565b60006133be60248361248f565b91506133c982613362565b604082019050919050565b600060208201905081810360008301526133ed816133b1565b9050919050565b60006133ff82612536565b915061340a83612536565b925082820390508181111561342257613421612f9d565b5b92915050565b7f4f776e61626c653a2063616c6c6572206973206e6f7420746865206f776e6572600082015250565b600061345e60208361248f565b915061346982613428565b602082019050919050565b6000602082019050818103600083015261348d81613451565b9050919050565b7f4552433732313a20617070726f766520746f2063616c6c657200000000000000600082015250565b60006134ca60198361248f565b91506134d582613494565b602082019050919050565b600060208201905081810360008301526134f9816134bd565b9050919050565b7f4552433732313a207472616e7366657220746f206e6f6e20455243373231526560008201527f63656976657220696d706c656d656e7465720000000000000000000000000000602082015250565b600061355c60328361248f565b915061356782613500565b604082019050919050565b6000602082019050818103600083015261358b8161354f565b9050919050565b7f45524337323155524953746f726167653a2055524920736574206f66206e6f6e60008201527f6578697374656e7420746f6b656e000000000000000000000000000000000000602082015250565b60006135ee602e8361248f565b91506135f982613592565b604082019050919050565b6000602082019050818103600083015261361d816135e1565b9050919050565b60008190508160005260206000209050919050565b60006020601f8301049050919050565b600082821b905092915050565b6000600883026136867fffffffffffffffffffffffffffffffffffffffffffffffffffffffffffffffff82613649565b6136908683613649565b95508019841693508086168417925050509392505050565b6000819050919050565b60006136cd6136c86136c384612536565b6136a8565b612536565b9050919050565b6000819050919050565b6136e7836136b2565b6136fb6136f3826136d4565b848454613656565b825550505050565b600090565b613710613703565b61371b8184846136de565b505050565b5b8181101561373f57613734600082613708565b600181019050613721565b5050565b601f8211156137845761375581613624565b61375e84613639565b8101602085101561376d578190505b61378161377985613639565b830182613720565b50505b505050565b600082821c905092915050565b60006137a760001984600802613789565b1980831691505092915050565b60006137c08383613796565b9150826002028217905092915050565b6137d982612484565b67ffffffffffffffff8111156137f2576137f1612690565b5b6137fc8254612c1a565b613807828285613743565b600060209050601f83116001811461383a5760008415613828578287015190505b61383285826137b4565b86555061389a565b601f19841661384886613624565b60005b828110156138705784890151825560018201915060208501945060208101905061384b565b8683101561388d5784890151613889601f891682613796565b8355505b6001600288020188555050505b505050505050565b600081519050919050565b600082825260208201905092915050565b60006138c9826138a2565b6138d381856138ad565b93506138e38185602086016124a0565b6138ec816124ca565b840191505092915050565b600060808201905061390c60008301876125cb565b61391960208301866125cb565b6139266040830185612661565b818103606083015261393881846138be565b905095945050505050565b600081519050613952816123f5565b92915050565b60006020828403121561396e5761396d6123bf565b5b600061397c84828501613943565b91505092915050565b600061399082612536565b915061399b83612536565b9250826139ab576139aa613247565b5b828204905092915050565b7f4552433732313a206d696e7420746f20746865207a65726f2061646472657373600082015250565b60006139ec60208361248f565b91506139f7826139b6565b602082019050919050565b60006020820190508181036000830152613a1b816139df565b9050919050565b7f4552433732313a20746f6b656e20616c7265616479206d696e74656400000000600082015250565b6000613a58601c8361248f565b9150613a6382613a22565b602082019050919050565b60006020820190508181036000830152613a8781613a4b565b905091905056fea26469706673582212202f85ea70a94cdfdc395762da0b30a359500b0885424c7494b6ffaf5bfae292f664736f6c63430008110033",
  "devdoc": {
    "kind": "dev",
    "methods": {
      "approve(address,uint256)": {
        "details": "See {IERC721-approve}."
      },
      "balanceOf(address)": {
        "details": "See {IERC721-balanceOf}."
      },
      "getApproved(uint256)": {
        "details": "See {IERC721-getApproved}."
      },
      "isApprovedForAll(address,address)": {
        "details": "See {IERC721-isApprovedForAll}."
      },
      "name()": {
        "details": "See {IERC721Metadata-name}."
      },
      "owner()": {
        "details": "Returns the address of the current owner."
      },
      "ownerOf(uint256)": {
        "details": "See {IERC721-ownerOf}."
      },
      "renounceOwnership()": {
        "details": "Leaves the contract without owner. It will not be possible to call `onlyOwner` functions anymore. Can only be called by the current owner. NOTE: Renouncing ownership will leave the contract without an owner, thereby removing any functionality that is only available to the owner."
      },
      "safeTransferFrom(address,address,uint256)": {
        "details": "See {IERC721-safeTransferFrom}."
      },
      "safeTransferFrom(address,address,uint256,bytes)": {
        "details": "See {IERC721-safeTransferFrom}."
      },
      "setApprovalForAll(address,bool)": {
        "details": "See {IERC721-setApprovalForAll}."
      },
      "supportsInterface(bytes4)": {
        "details": "See {IERC165-supportsInterface}."
      },
      "symbol()": {
        "details": "See {IERC721Metadata-symbol}."
      },
      "tokenURI(uint256)": {
        "details": "See {IERC721Metadata-tokenURI}."
      },
      "transferFrom(address,address,uint256)": {
        "details": "See {IERC721-transferFrom}."
      },
      "transferOwnership(address)": {
        "details": "Transfers ownership of the contract to a new account (`newOwner`). Can only be called by the current owner."
      }
    },
    "version": 1
  },
  "userdoc": {
    "kind": "user",
    "methods": {},
    "version": 1
  },
  "storageLayout": {
    "storage": [
      {
        "astId": 1005,
        "contract": "contracts/RandomIpfsNft.sol:RandomIpfsNft",
        "label": "_name",
        "offset": 0,
        "slot": "0",
        "type": "t_string_storage"
      },
      {
        "astId": 1007,
        "contract": "contracts/RandomIpfsNft.sol:RandomIpfsNft",
        "label": "_symbol",
        "offset": 0,
        "slot": "1",
        "type": "t_string_storage"
      },
      {
        "astId": 1011,
        "contract": "contracts/RandomIpfsNft.sol:RandomIpfsNft",
        "label": "_owners",
        "offset": 0,
        "slot": "2",
        "type": "t_mapping(t_uint256,t_address)"
      },
      {
        "astId": 1015,
        "contract": "contracts/RandomIpfsNft.sol:RandomIpfsNft",
        "label": "_balances",
        "offset": 0,
        "slot": "3",
        "type": "t_mapping(t_address,t_uint256)"
      },
      {
        "astId": 1019,
        "contract": "contracts/RandomIpfsNft.sol:RandomIpfsNft",
        "label": "_tokenApprovals",
        "offset": 0,
        "slot": "4",
        "type": "t_mapping(t_uint256,t_address)"
      },
      {
        "astId": 1025,
        "contract": "contracts/RandomIpfsNft.sol:RandomIpfsNft",
        "label": "_operatorApprovals",
        "offset": 0,
        "slot": "5",
        "type": "t_mapping(t_address,t_mapping(t_address,t_bool))"
      },
      {
        "astId": 1993,
        "contract": "contracts/RandomIpfsNft.sol:RandomIpfsNft",
        "label": "_tokenURIs",
        "offset": 0,
        "slot": "6",
        "type": "t_mapping(t_uint256,t_string_storage)"
      },
      {
        "astId": 874,
        "contract": "contracts/RandomIpfsNft.sol:RandomIpfsNft",
        "label": "_owner",
        "offset": 0,
        "slot": "7",
        "type": "t_address"
      },
      {
        "astId": 3155,
        "contract": "contracts/RandomIpfsNft.sol:RandomIpfsNft",
        "label": "s_requestIdToSender",
        "offset": 0,
        "slot": "8",
        "type": "t_mapping(t_uint256,t_address)"
      },
      {
        "astId": 3157,
        "contract": "contracts/RandomIpfsNft.sol:RandomIpfsNft",
        "label": "s_tokenCounter",
        "offset": 0,
        "slot": "9",
        "type": "t_uint256"
      },
      {
        "astId": 3163,
        "contract": "contracts/RandomIpfsNft.sol:RandomIpfsNft",
        "label": "s_dogTokenUris",
        "offset": 0,
        "slot": "10",
        "type": "t_array(t_string_storage)dyn_storage"
      },
      {
        "astId": 3165,
        "contract": "contracts/RandomIpfsNft.sol:RandomIpfsNft",
        "label": "i_mintFee",
        "offset": 0,
        "slot": "11",
        "type": "t_uint256"
      }
    ],
    "types": {
      "t_address": {
        "encoding": "inplace",
        "label": "address",
        "numberOfBytes": "20"
      },
      "t_array(t_string_storage)dyn_storage": {
        "base": "t_string_storage",
        "encoding": "dynamic_array",
        "label": "string[]",
        "numberOfBytes": "32"
      },
      "t_bool": {
        "encoding": "inplace",
        "label": "bool",
        "numberOfBytes": "1"
      },
      "t_mapping(t_address,t_bool)": {
        "encoding": "mapping",
        "key": "t_address",
        "label": "mapping(address => bool)",
        "numberOfBytes": "32",
        "value": "t_bool"
      },
      "t_mapping(t_address,t_mapping(t_address,t_bool))": {
        "encoding": "mapping",
        "key": "t_address",
        "label": "mapping(address => mapping(address => bool))",
        "numberOfBytes": "32",
        "value": "t_mapping(t_address,t_bool)"
      },
      "t_mapping(t_address,t_uint256)": {
        "encoding": "mapping",
        "key": "t_address",
        "label": "mapping(address => uint256)",
        "numberOfBytes": "32",
        "value": "t_uint256"
      },
      "t_mapping(t_uint256,t_address)": {
        "encoding": "mapping",
        "key": "t_uint256",
        "label": "mapping(uint256 => address)",
        "numberOfBytes": "32",
        "value": "t_address"
      },
      "t_mapping(t_uint256,t_string_storage)": {
        "encoding": "mapping",
        "key": "t_uint256",
        "label": "mapping(uint256 => string)",
        "numberOfBytes": "32",
        "value": "t_string_storage"
      },
      "t_string_storage": {
        "encoding": "bytes",
        "label": "string",
        "numberOfBytes": "32"
      },
      "t_uint256": {
        "encoding": "inplace",
        "label": "uint256",
        "numberOfBytes": "32"
      }
    }
  }
}